:100000000C94F4000C941C010C941C010C941C0125
:100010000C941C010C941C010C941C010C941C01EC
:100020000C941C010C941C010C94A3040C94BD05AD
:100030000C941C010C941C010C941C010C941C01CC
:100040000C941C010C941C010C941C010C941C01BC
:100050000C941C010C941C010C941C010C94D202F5
:100060000C941C010C941C010C941C010C941C019C
:100070000C941C010C941C010C941C010C941C018C
:100080000C941C010C941C010C941C010C941C017C
:100090000C941C010C941C010C941C010C941C016C
:1000A0000C941C010C941C010C941C010000000019
:1000B000240027002A002D00300000000000250049
:1000C00028002B002E003100000000002300260035
:1000D00029002C002F000404040404030405020278
:1000E00002020403020202020606060606060404D1
:1000F00002020204040802011040804010204080E7
:10010000408008020401804020100201108010206D
:1001100040400000000200080E0000030401000B34
:1001200000000000000000000000000000000000CF
:10013000070605040100080A0B0C0D090403090455
:1001400022034C0065006F005300740069006300D7
:100150006B002000760031002000200020002000ED
:1001600020001803460072006500650074007200EC
:100170006F006E006900630073001201000200004E
:100180000040BA26028000010102000112010002B3
:1001900002000040BA26028000010102000100C1F5
:1001A0008081080B00020202010009040000010224
:1001B00002000005240010010524010101042402AD
:1001C000060524060001070581031000400904010B
:1001D00000020A0000000705020240000007058334
:1001E0000240000007050E0711241FBECFEFDAE022
:1001F000DEBFCDBF11E0A0E0B1E0E0E4F1E102C07C
:1002000005900D92AC34B107D9F711E0ACE4B1E040
:1002100001C01D92AC36B107E1F711E0C8EED1E0A4
:1002200004C02297FE010E949A08C43ED107C9F774
:100230000E94D4030C949E080C9400009F92AF92ED
:10024000BF92CF92DF92EF92FF920F931F93982E5F
:100250008B017A01000F111F222717FD2095322FE5
:1002600060E472E48FE090E0A90198010E946908BF
:10027000122F032F0E941A035701CC24B7FCC094FD
:10028000DC2CA60EB71EC81ED91E10C0892D61E039
:100290000E949F02812F902F0E948103892D60E090
:1002A0000E949F02812F902F0E9481030E941A03B7
:1002B0006A157B058C059D0548F31F910F91FF90F2
:1002C000EF90DF90CF90BF90AF909F900895809176
:1002D0002A0161E00E949F0260913001709131011A
:1002E000882777FD8095982F0E94280380912A0106
:1002F00060E00E949F026091300170913101882777
:1003000077FD8095982F0E942803089580912A01F7
:1003100061E00E949F0260912E0170912F01882759
:1003200077FD8095982F0E94280380912A0160E034
:100330000E949F0260912E0170912F01882777FD06
:100340008095982F0E94280308950E9486010E949C
:1003500086010E94860164EF71E080E090E00E94D7
:1003600028030E9467010E9467010E94670164EFF1
:1003700071E080E090E00E9428030E9486010E94C4
:1003800086010E94860160E273E080E090E00E94B6
:10039000280320914C0130914D012F5F3F4F309346
:1003A0004D0120934C01C90166E070E00E943408C1
:1003B000892B000080E691E060E071E00E94210856
:1003C00080912C0190912D0168EB71E048E750E09D
:1003D0000E941E0164E670E080E090E00E94280325
:1003E00080912C0190912D0164E972E048E750E082
:1003F0000E941E0164E670E080E090E00E94280305
:1004000080912C0190912D0160E773E048E750E066
:100410000E941E0164E670E080E090E00E942803E4
:100420000895C90163E070E00E943408892B29F423
:1004300080E691E060E171E004C080E691E065E271
:1004400071E00E942108089580912A0161E00E94D4
:10045000350280912C0161E00E94350280E691E036
:1004600060E875E20E94F4060895482F50E0CA0142
:100470008C509F4FFC0124914A525F4FFA018491A6
:100480008823C1F0E82FF0E0EE0FFF1FE455FF4F87
:10049000A591B491662341F49FB7F8948C9120956F
:1004A00082238C939FBF08959FB7F8948C91822BE1
:1004B0008C939FBF0895883041F1893060F4823079
:1004C00001F1833018F48130C9F518C0833061F030
:1004D0008430A1F50DC08A3001F18A30D0F08B3024
:1004E00011F18C3059F525C0809180008F7703C0C1
:1004F000809180008F7D80938000089584B58F77F0
:1005000002C084B58F7D84BD0895809190008F775F
:1005100007C0809190008F7D03C080919000877FFD
:100520008093900008958091C0008F778093C000E1
:1005300008958091C0008F7D8093C0000895FF9240
:100540000F931F93F62E482F50E0CA018E5E9E4FE8
:10055000FC012491CA018C509F4FFC0114914A5216
:100560005F4FFA0104910023C9F0222319F0822F72
:100570000E945B02E02FF0E0EE0FFF1FE654FF4FFA
:10058000A591B4919FB7F894FF2021F48C91109518
:10059000812302C08C91812B8C939FBF1F910F915F
:1005A000FF9008951F920F920FB60F9211242F9370
:1005B0003F938F939F93AF93BF93809152019091FC
:1005C0005301A0915401B09155013091560101960B
:1005D000A11DB11D232F2D5F2D3720F02D57019622
:1005E000A11DB11D20935601809352019093530198
:1005F000A0935401B093550180914E0190914F0109
:10060000A0915001B09151010196A11DB11D80939F
:100610004E0190934F01A0935001B0935101BF91AF
:10062000AF919F918F913F912F910F900FBE0F909F
:100630001F9018958FB7F894209152013091530173
:1006400040915401509155018FBFB901CA010895DD
:100650009B01AC017FB7F89480914E0190914F01BE
:10066000A0915001B091510166B5A89B05C06F3FA4
:1006700019F00196A11DB11D7FBFBA2FA92F982F88
:100680008827860F911DA11DB11D62E0880F991F5B
:10069000AA1FBB1F6A95D1F7BC012DC0FFB7F89404
:1006A00080914E0190914F01A0915001B091510164
:1006B000E6B5A89B05C0EF3F19F00196A11DB11D3D
:1006C000FFBFBA2FA92F982F88278E0F911DA11D2C
:1006D000B11DE2E0880F991FAA1FBB1FEA95D1F751
:1006E000861B970B885E9340C8F2215030404040F3
:1006F000504068517C4F211531054105510571F677
:100700000895019739F0880F991F880F991F029754
:100710000197F1F70895789484B5826084BD84B51B
:10072000816084BD85B5826085BD85B5816085BDEC
:10073000EEE6F0E0808181608083E1E8F0E0108205
:10074000808182608083808181608083E0E8F0E046
:10075000808181608083E1E9F0E080818260808334
:10076000808181608083E0E9F0E080818160808326
:10077000E1ECF0E080818260808380818160808311
:10078000E0ECF0E0808181608083EAE7F0E0808146
:1007900084608083808182608083808181608083A7
:1007A0008081806880830895CF93DF930E948B03BC
:1007B0008FE591E00E94EF040E942402C0E0D0E0A7
:1007C0000E94A5012097E1F30E940000F9CF9FB796
:1007D000F89487708093E9008091F2009FBF08959C
:1007E000282F809159018823C1F057FF1AC015C0E6
:1007F0002898909358018091F1008193E217F307B4
:10080000B9F74115510539F08091F200882319F4A8
:100810008BE68093E800AFBF02C04FEF5FEFCA01E5
:100820000895AFB7F89427702093E9008091F20003
:10083000282F30E0241735070CF4A901FB019B0198
:10084000240F311D94E6DACFDF93CF930F92CDB70B
:10085000DEB7BE016F5F7F4F41E050E00E94F003C2
:10086000019719F02FEF3FEF03C08981282F30E067
:10087000C9010F90CF91DF910895FF920F931F93BD
:10088000F82E142F052F40915C0150915D01212F0E
:10089000302FC901DC01FB016EEF29C0F7FE02C059
:1008A000949101C0908120915A0130915B012417ED
:1008B0003507ACF48091E8008570E1F38091E800A1
:1008C00082FF03C02FEF3FEF17C09093F100C901E3
:1008D00001968F739070892B11F46093E8002F5F5D
:1008E0003F4F30935B0120935A0111973196109737
:1008F000A9F6812F902F9C01C9011F910F91FF90A4
:1009000008959C018091E80082FFFCCFF901260F39
:10091000311D03C08091F1008193E217F307D1F7F5
:10092000289884E6809358018BEF8093E800CB01F0
:1009300008958093E9008091F200882319F08AE3FA
:100940008093E80008951F920F920FB60F92112422
:100950008F939F938091E1001092E100982F83FF85
:100960000FC01092E90081E08093EB001092EC0040
:1009700082E38093ED001092590188E08093F000AB
:1009800092FF26C083E08093E9008091F2008823E3
:1009900019F08AE38093E80080915701882351F091
:1009A000809157018150809357018091570188238E
:1009B00009F45D9A80915801882351F08091580183
:1009C00081508093580180915801882309F4289A16
:1009D0009F918F910F900FBE0F901F9018951092BE
:1009E000590181E08093D70080EA8093D80082E1AA
:1009F00089BD09B400FEFDCF80E98093D8008CE06A
:100A00008093E2001092E000559A209A089508958C
:100A10005F926F927F928F929F92AF92BF92CF928E
:100A2000DF92EF92FF920F931F93CF93DF93E82E05
:100A3000842E752E80915901882371F18B01242F0A
:100A4000352FC901EC017AEFF72E67E0962E9E2034
:100A500050E4552E8E2D90E040E2A42EB12CA82219
:100A6000B9223AE3632E20E4C22ED12CC822D92227
:100A700058C09FB7F8949092E9008091E80085FDF6
:100A800002C020E004C08091F200252D281B9FBFEA
:100A9000222361F4FA9419F42FEF3FEF4DC061E087
:100AA00070E080E090E00E9428033BC0822F90E03D
:100AB000C817D9070CF42C2FC21BD1094FB7F894D3
:100AC0009092E900A114B10421F406C01092F10043
:100AD00021502223D9F719C0E7FC03C0F801922F57
:100AE00010C0C801322F06C0FC010196E491E093CA
:100AF000F10031503323C1F706C081918093F1009A
:100B000091509923D1F7020F111D8091E80085FFC4
:100B100005C0209729F4C114D10411F06092E800B7
:100B20004FBF209709F0A5CF5D9884E680935701C9
:100B3000282D372DC9019C01C901DF91CF911F914B
:100B40000F91FF90EF90DF90CF90BF90AF909F906C
:100B50008F907F906F905F900895DF93CF930F9267
:100B6000CDB7DEB71982CE0101960E947507898143
:100B700090E00F90CF91DF9108951F920F920FB6E2
:100B80000F921124EF92FF921F932F933F934F9355
:100B90005F936F937F938F939F93AF93BF93EF93E5
:100BA000FF93DF93CF93CDB7DEB76197DEBFCDBFA5
:100BB0001092E9008091E80083FFFDC0FE013196AC
:100BC0009E01275F3F4F03C08091F1008193E217A0
:100BD000F307D1F7289884E68093580182EF809339
:100BE000E800998197FF05C08091E80080FFFCCF65
:100BF00003C08EEF8093E800292F30E0C901807692
:100C00009070892B09F0B7C08A81882329F410924B
:100C1000F1001092F100C4C0813009F4C1C08330EA
:100C200009F4BEC0853049F48091E80080FFFCCF14
:100C30008B8180688093E300B3C0863009F071C077
:100C40001C81EF80F8841230C1F51092E9001092F7
:100C50005B0110925A0110925D0110925C010E949A
:100C6000AD0599E0FE013996DF01292F1D922A95E5
:100C7000E9F799871A8791E09E8790E8988B9AEF19
:100C8000998B20915A0130915B01275F3F4F3C8740
:100C90002B878D871092E90010925B0110925A0108
:100CA000F0925D01E0925C0180E0BF0149E050E01C
:100CB0000E943D040E94AD0573C01092E90010929D
:100CC0005B0110925A01F0925D01E0925C011130DB
:100CD00071F488E0E816F10411F410935E0180913C
:100CE0005E01882309F064C0EAE7F1E013C0133025
:100CF00009F05AC08B81882319F4ECE3F1E00AC0B3
:100D0000823019F4E0E4F1E005C0813009F04CC014
:100D1000E2E6F1E0449180E8BF0150E00E943D042A
:100D20003FC0873009F440C0883021F481E08093CF
:100D3000F10036C08930A1F523703070232BA1F566
:100D4000EFE9F1E091E031E026E39093E9003093A0
:100D5000EB0084918093EC002093ED009F5F31962F
:100D6000943099F78EE78093EA001092EA008B8125
:100D70008093590115C08F8198851092E9001092D7
:100D80005B0110925A0190935D0180935C018D810B
:100D9000882351F4CE0101960E948B07882321F00D
:100DA0008EEF8093E80007C081E28093EB0003C0E0
:100DB000ECE8F1E0AFCF6196DEBFCDBFCF91DF9120
:100DC000FF91EF91BF91AF919F918F917F916F9123
:100DD0005F914F913F912F911F91FF90EF900F9056
:100DE0000FBE0F901F9018950895DC01809132017D
:100DF000909133018F5F9F4F61F4ED91FC911197BA
:100E00000680F781E02DCD01099590933301809301
:100E10003201809132019091330108951092630163
:100E20001092620188EE93E0A0E0B0E0809364014C
:100E300090936501A0936601B093670180E491E00F
:100E4000909361018093600108950F931F93DF9346
:100E5000CF930F92CDB7DEB78C01698380913B01B0
:100E6000882369F083E0BE016F5F7F4F41E050E06F
:100E70000E9408051816190614F49C0107C081E0A9
:100E800090E0F8019383828320E030E0C9010F9065
:100E9000CF91DF911F910F91089583E00E949904F3
:100EA000089520913201309133018FEF2F3F3807A1
:100EB00039F08FEF9FEF909333018093320104C09C
:100EC00082E00E9424049C01C901089582E00E94EE
:100ED000E703282F80913201909133018F5F9F4F5C
:100EE00009F02F5F822F90E00895FC0180818E5FD2
:100EF000808380E862EA71E042E450E00E943D04B1
:100F000008956AEF70E080E090E00E942803F89472
:100F10000C94003C0895FC0181819081913A51F438
:100F2000813269F580E064E371E047E050E00E94BF
:100F30003D0423C0913219F5803239F484E391E005
:100F400067E070E00E94810418C08232C1F482819F
:100F500080933B018091340190913501A09136013D
:100F6000B0913701805B9440A040B04051F4809133
:100F70003B0180FD06C00E94810781E0089580E06A
:100F8000089581E00895CF92DF92EF92FF920F9340
:100F90001F93CF93DF937C016B018A01C0E0D0E007
:100FA0000FC0D6016D916D01D701ED91FC910190BB
:100FB000F081E02DC7010995C80FD91F01501040DD
:100FC0000115110571F7CE01DF91CF911F910F919E
:100FD000FF90EF90DF90CF900895EF92FF920F93E4
:100FE0001F938C01DC01ED91FC910190F081E02DCB
:100FF0006DE009957C01D801ED91FC910190F081A3
:10100000E02DC8016AE009959C012E0D3F1DC90124
:101010001F910F91FF90EF900895CF93DF93DB0125
:101020000D900020E9F71197A61BB70BEC01E881A2
:10103000F9810280F381E02DAD010995DF91CF9117
:101040000895EF92FF920F931F937C010E940D0869
:101050008C01C7010E94ED07080F191FC8011F91DD
:101060000F91FF90EF90089597FB092E07260AD065
:1010700077FD04D049D006D000201AF47095619510
:101080007F4F0895F6F7909581959F4F0895A1E2BF
:101090001A2EAA1BBB1BFD010DC0AA1FBB1FEE1FF2
:1010A000FF1FA217B307E407F50720F0A21BB30B3D
:1010B000E40BF50B661F771F881F991F1A9469F7B9
:1010C00060957095809590959B01AC01BD01CF0115
:1010D000089597FB092E05260ED057FD04D0D7DFC3
:1010E0000AD0001C38F450954095309521953F4F1B
:1010F0004F4F5F4F0895F6F79095809570956195E5
:101100007F4F8F4F9F4F0895AA1BBB1B51E107C014
:10111000AA1FBB1FA617B70710F0A61BB70B881F87
:10112000991F5A95A9F780959095BC01CD01089516
:10113000EE0FFF1F0590F491E02D0994F894FFCF76
:101140004861707079204E65772059656172210081
:1011500021402324255E262A282930313233343594
:101160003637383900534F5321000D000B00BC02B5
:10117000C800FFFF00E100000000000000000000C8
:0C1180002507C30766075107F5064D0759
:00000001FF
